S01700004763634170706C69636174696F6E322E737265635A
S113000093C0ADC0ACC0ABC0AAC0A9C0A8C0A7C0B3
S1130010A6C0A5C0A4C0A3C0A2C0A1C0A0C09FC0C8
S11300209EC09DC09CC06E616E00696E66000040FB
S11300307A10F35A00A0724E18090010A5D4E800F3
S113004000E87648170000E40B54020000CA9A3B0B
S1130050000000E1F5050000809698000000404291
S11300600F000000A086010000001027000000001F
S1130070E803000000006400000000000A00000023
S113008000000100000000002C76D888DC674F08CF
S113009023DFC1DFAE59E1B1B796E5E3E453C63AD5
S11300A0E651997696E8E6C28426EB898C9B62ED4C
S11300B0407C6FFCEFBC9C9F40F2BAA56FA5F49006
S11300C0055A2AF75C936B6CF9676DC11BFCE0E47D
S11300D00D47FEF520E6B500D0ED902E03009435D3
S11300E077050080841E080000204E0A000000C826
S11300F00C333333330F986E12831141EF8D211477
S1130100893BE65516CFFEE6DB18D1844B381BF746
S11301107C1D901DA4BBE424203284725E228100E5
S1130120C9F124ECA1E53D2711241FBECFE5D4E09D
S1130130DEBFCDBF10E0A0E6B0E0E6E0FAE102C029
S113014005900D92A839B107D9F720E0A8E9B0E0ED
S113015001C01D92A53FB207E1F731D152CC50CF77
S1130160CF93DF93EC01F1D3882351F0209719F05A
S1130170CE01CAD402C08CEC2AD484E428D481E011
S1130180DF91CF91089561157105B1F0FC01680FFD
S1130190791F80E058E048E12191952F322F3827CC
S11301A030FF0CC084278695806826959150B1F75E
S11301B0E617F70789F7089580E008958695F5CF47
S11301C0CF92DF92EF92FF920F931F93CF93DF931F
S11301D0CDB7DEB72A970FB6F894DEBF0FBECDBFFA
S11301E08C016B01B2D3982F8823E9F10115110515
S11301F019F0C80189D402C08CECE9D38EEBE7D3A3
S1130200FE0131968AE0DF011D928A95E9F781E0CB
S1130210898382E08A8383E08B8384E08C8385E016
S11302208D8386E08E8387E08F8388E0888789E0EA
S113023089878F017E01BAE0EB0EF11CE5D3F8014A
S113024081938F01EE15FF05C9F78981D6018C933F
S11302508A8111968C9369E070E0CE01019693DF58
S113026091E0811190E0892F2A960FB6F894DEBFB1
S11302700FBECDBFDF91CF911F910F91FF90EF90F3
S1130280DF90CF900895CF92DF92EF92FF92CF93B9
S1130290DF93FC012081C1818C2F8770F0E18F9F57
S11302A0C0011124622F62956F70682B822F8F70AA
S11302B0982F990F890FD82FDD0F8D2FCC3F18F071
S11302C09FE7961B692F8436B0F470E080E090E0DD
S11302D07DD56B017C016D2F70E080E090E074D5DA
S11302E020E030E048EC52E407D59B01AC01C701A3
S11302F0B6019AD415C070E080E090E067D56B0138
S11303007C016D2F70E080E090E05ED520E030E06D
S11303104AE754E4F1D49B01AC01C701B60184D48B
S1130320CC3F08F09058DF91CF91FF90EF90DF9091
S1130330CF900895DF92EF92FF920F931F93CF9384
S1130340DF93CDB7DEB729970FB6F894DEBF0FBEA3
S1130350CDBF8FEF89870F2EFAE9EF2EF0E0FF2E45
S1130360F02DD12C8E01075F1F4FBE016F5F7F4FB1
S1130370C801C1D399859E5F923090F0FE013196F9
S1130380D70191919D93E017F107D9F7D39489850B
S1130390882331F088E0E80EF11C8AE0D812E5CF1A
S11303A08D2D29960FB6F894DEBF0FBECDBFDF9119
S11303B0CF911F910F91FF90EF90DF900895CF930D
S11303C0DF93CDB7DEB76C970FB6F894DEBF0FBEE0
S11303D0CDBF81E084BB85BB83E087BB78948DE08F
S11303E067D28FE39FE10197F1F700C000002FD29D
S11303F080E690E04ED29EDF80939900412C222427
S11304002394312C0F2EF6E6CF2EF0E0DF2EF02DC4
S11304108E010F5F1F4F0F2EF2E7EF2EF0E0FF2E3D
S1130420F02DA02E512E842D00D2822D4110832D2B
S1130430482E4AE0BE016F5E7F4F80E090E0F8D91D
S1130440632D832DE6D19FEF29E638E191502040BA
S11304503040E1F700C0000080919900882319F32F
S1130460B32C8B2C912CF401EE0FFF1FEE0FFF1F0A
S1130470EE0FFF1FE656FF4F8081843109F487C0D9
S113048038F4813009F475C0803109F464C09AC02D
S1130490883221F08A3309F488C094C0C2D1C401DF
S11304A001969F938F93DF92CF921F930F931BDA42
S11304B08A2D952DEED18FEF9FE027E28150904059
S11304C02040E1F700C00000C401880F991F880F85
S11304D0991F880F991F9C0126563F4F4901C90156
S11304E03FDE3FEF8FE097E2315080409040E1F7EC
S11304F000C00000BE01655E7F4FC40161DE91D182
S1130500CE014B96C0DE962E872E782E692E0F9044
S11305100F900F900F900F900F9020E030E040EA82
S113052052E4E6D318161CF0C09AC19802C0C19ACE
S1130530C0986F927F928F929F92FF92EF921F9337
S11305400F93D1D98A2D952DA4D10FB6F894DEBF7F
S11305500FBECDBF37C065D18CE790E09AD13FEF95
S11305608FE097E2315080409040E1F700C00000F6
S113057029C057D185E890E08CD12FEF3FE087E286
S1130580215030408040E1F700C000001BC049D139
S11305908CE890E07ED19FEF2FE037E2915020402D
S11305A03040E1F700C000000DC03BD183E990E08A
S11305B070D18FEF9FE027E2815090402040E1F717
S11305C000C00000B39480919900B81608F449CF94
S11305D02ACF11B888E180B9089594EA96BF06B687
S11305E007FEFDCF91B1987F983011F0903179F4E6
S11305F083B984E886BF06B607FEFDCF91B1987F24
S1130600983139F081E0903429F480E0089581E054
S1130610089580E0089584E986BF06B604FCFDCF02
S1130620089583B984E886BF06B607FEFDCF91B16D
S1130630987F81E0983209F480E00895CF9388236D
S113064031F08091980081608093980005C080917A
S113065098008E7F809398008091980082608093A8
S113066098006091980080E08ED262E080E0D5D25C
S113067000C064E080E070D2C82F62E080E0D0D295
S113068000C062E080E0C9D200C064E080E064D2CF
S1130690C295C07F8F70C82B62E080E0C1D28C2FDE
S11306A0CF91089580E0CADF8823E4F388E090E0E6
S11306B00197F1F780E0C2DF089562E080E0ADD2F7
S11306C000C062E080E0ACD20895CF93C82F6623C7
S11306D031F08091980081608093980005C08091EA
S11306E098008E7F80939800809198008D7F8093EE
S11306F098006091980080E046D2809198008F77AE
S113070080939800809198008F7B809398008091CB
S113071098008F7D80939800809198008F7E8093BD
S11307209800CC232CF480919800806880939800E2
S1130730C6FF05C080919800806480939800C5FF2F
S113074005C080919800806280939800C4FF05C022
S1130750809198008061809398006091980080E077
S113076012D2ABDF809198008F77809398008091AC
S113077098008F7B80939800809198008F7D809360
S11307809800809198008F7E80939800C3FF05C0E5
S113079080919800806880939800C2FF05C0809182
S11307A09800806480939800C1FF05C080919800F0
S11307B0806280939800C0FF05C08091980080619A
S11307C0809398006091980080E0DDD176DF80917D
S11307D09800806180939800809198008062809353
S11307E0980080919800806480939800809198008C
S11307F08068809398006091980080E0C4D1CF9184
S11308000895CF93C82F4EDF60E08C2F5EDFCF9129
S11308100895611103C08058F4DF08958054F1DF16
S1130820089540DF81E0EDDF0895882331F0809161
S11308309800877F8093980005C080919800886015
S1130840809398006091980080E09DD108952ADFFC
S113085082E0D7DF0895CF93C82F24DFCA3041F454
S1130860803410F080E001C080E48058CADF0FC0FB
S1130870803121F460E080EC28DF05C0803519F474
S113088060E080E822DF0EDF61E08C2F1EDFCF9175
S11308900895CF93DF93EC012196FC018081882396
S11308A021F0D9DF89918111FCCFDF91CF91089597
S11308B01F93CF93DF93182F3FD11092980060912C
S11308C0980080E060D180E09AEF0197F1F7909171
S11308D09800906290939800909198009061909302
S11308E098006091980080E04ED1E7DEE0E0FEE4FD
S11308F03197F1F7E2DEC0E0D1E0FE013197F1F784
S1130900DCDEFE013197F1F7909198009F7E909381
S113091098006091980080E036D1CFDE2197F1F7FE
S113092088E26FDF88E06DDF7CDF86E06ADF812F9D
S113093068DFDF91CF911F910895882319F0A8985B
S1130940A09A0895A898A098089581E0F6DF8FE70B
S113095097E00197F1F700C0000080E0EEDFEFEED2
S1130960F0E03197F1F700C0000083B3EFE8F6E060
S11309703197F1F700C00000809581700895CF93FE
S1130980C82F81E0DADF85E08A95F1F70000CC23F7
S113099011F080E0D2DF8FEE90E00197F1F700C014
S11309A0000080E0CADFCF91089581E0C6DF85E0D2
S11309B08A95F1F7000080E0C0DF9AE49A95F1F798
S11309C000C083B390EF9A95F1F781700895FF9278
S11309D00F931F93CF93DF93F82EC0E0D0E001E094
S11309E010E0C8010C2E02C0880F991F0A94E2F788
S11309F08F21C5DF2196C830D10599F7DF91CF91BA
S1130A001F910F91FF900895EF92FF921F93CF9340
S1130A10DF93C0E0D0E010E0EE24E394F12CC5DFD6
S1130A20882341F0C7010C2E02C0880F991F0A9435
S1130A30E2F7182B2196C830D10589F7812FDF9171
S1130A40CF911F91FF90EF900895CF92DF92EF9294
S1130A50FF920F931F93CF93DF93D82E8B0175DFF3
S1130A60882341F180EFB3DFE12CC0E4CC24C394AC
S1130A700F2EF8EFFF2EF02DFC0E97DFD82F95DF09
S1130A80882319F0DD23D1F017C0D11123C0CD156F
S1130A90E0F0F801808180FF11C0DC1219C00EC0A3
S1130AA0C150CF11EACF0F5F1F4FCF2DF110E0CF10
S1130AB08E2D18C08FEF16C08EEF14C080E05FDF5C
S1130AC0F801908196959083EBCFEC2EDC2D02C03B
S1130AD0EC2EDC2D8D2F53DFF801908196959068D4
S1130AE09083DECFDF91CF911F910F91FF90EF9014
S1130AF0DF90CF900895CF93DF93EC018881A5DF39
S1130B008883DF91CF9108950F931F93CF93DF9341
S1130B108C011BDF882359F085E559DFE801085F64
S1130B201F4F899154DFC017D107D9F781E0DF91B6
S1130B30CF911F910F9108954CDD85E38A95F1F7CC
S1130B40000080E090E0FC01E351FF4F1082019629
S1130B5088309105C1F70895883088F4683088F4A6
S1130B60E82FF0E0E351FF4F8081082E000C990B31
S1130B7002C0959587956A95E2F7817008958FEF85
S1130B8008958FEF0895CF93883080F4C62F982F5F
S1130B90E82FF0E0E351FF4F60838FE3890F880F64
S1130BA01CDD8C2F3EDD37DD80E001C08FEFCF915F
S1130BB00895CF93DF93883050F5683050F5282F8F
S1130BC030E0F901E351FF4F9081442349F0C1E043
S1130BD0D0E002C0CC0FDD1F6A95E2F7C92B09C033
S1130BE0C1E0D0E002C0CC0FDD1F6A95E2F7C095EA
S1130BF0C923982FF901E351FF4FC0838FE3890F75
S1130C00880FEBDC8C2F0DDD06DD80E003C08FEF59
S1130C1001C08FEFDF91CF91089541E0CADF0895BD
S1130C2040E0C7DF08955058BB27AA270ED044C11F
S1130C3035D130F03AD120F031F49F3F11F41EF455
S1130C402AC10EF4E095E7FB20C1E92F46D180F3D9
S1130C50BA17620773078407950718F071F49EF5B5
S1130C605EC10EF4E0950B2EBA2FA02D0B01B90135
S1130C7090010C01CA01A0011124FF27591B99F00E
S1130C80593F50F4503E68F11A16F040A22F232F1A
S1130C90342F4427585FF3CF469537952795A7956A
S1130CA0F0405395C9F77EF41F16BA0B620B730B11
S1130CB0840BBAF09150A1F0FF0FBB1F661F771F82
S1130CC0881FC2F70EC0BA0F621F731F841F48F437
S1130CD0879577956795B795F7959E3F08F0B3CFBD
S1130CE09395880F08F09927EE0F979587950895A7
S1130CF0A8D008F481E008950CD0DEC0D6D040F02E
S1130D00CDD030F021F45F3F19F0BFC0511108C1BC
S1130D10C2C0E3D098F39923C9F35523B1F3951BCB
S1130D20550BBB27AA2762177307840738F09F5F08
S1130D305F4F220F331F441FAA1FA9F333D00E2E77
S1130D403AF0E0E830D091505040E695001CCAF7E4
S1130D5029D0FE2F27D0660F771F881FBB1F2617A9
S1130D6037074807AB07B0E809F0BB0B802DBF017C
S1130D70FF2793585F4F2AF09E3F510568F085C0C6
S1130D80CFC05F3FECF3983EDCF38695779567958B
S1130D90B795F7959F5FC9F7880F911D969587952D
S1130DA097F90895E1E0660F771F881FBB1F62174C
S1130DB073078407BA0720F0621B730B840BBA0B0A
S1130DC0EE1F88F7E0950895E89409C097FB3EF478
S1130DD090958095709561957F4F8F4F9F4F992384
S1130DE0A9F0F92F96E9BB279395F6958795779502
S1130DF06795B795F111F8CFFAF4BB0F11F460FFC2
S1130E001BC06F5F7F4F8F4F9F4F16C0882311F019
S1130E1096E911C0772321F09EE8872F762F05C02D
S1130E20662371F096E8862F70E060E02AF09A95C8
S1130E30660F771F881FDAF7880F9695879597F9BD
S1130E400895990F0008550FAA0BE0E8FEEF161657
S1130E501706E807F907C0F012161306E407F507AA
S1130E6098F0621B730B840B950B39F40A2661F01E
S1130E70232B242B252B21F408950A2609F4A140C1
S1130E80A6958FEF811D811D089597F99F6780E8CE
S1130E9070E060E008959FEF80EC089500240A94C8
S1130EA01616170618060906089500240A94121641
S1130EB01306140605060895092E0394000C11F474
S1130EC0882352F0BB0F40F4BF2B11F460FF04C021
S1130ED06F5F7F4F8F4F9F4F089557FD9058440F7A
S1130EE0551F59F05F3F71F04795880F97FB991F85
S1130EF061F09F3F79F08795089512161306140642
S1130F00551FF2CF4695F1DF08C0161617061806CE
S1130F10991FF1CF86957105610508940895E894A9
S1130F20BB2766277727CB0197F90895A3E1B0E0A3
S1130F30EBE9F7E058C36C014B012A01FC0117826D
S1130F401682838181FF29C3AE014F5F5F4F3A014F
S1130F50F6019381F40193FD859193FF81914F01F3
S1130F60882309F416C3853239F493FD859193FFE0
S1130F7081914F01853231F4B60190E07CD4520165
S1130F802501E6CF10E0F12C20E02032A0F48B32D2
S1130F9069F030F4803259F0833269F420612CC056
S1130FA08D3239F0803339F4216026C02260246008
S1130FB023C0286021C027FD27C030ED380F3A3008
S1130FC078F426FF06C0FAE01F9F300D1124132F7A
S1130FD013C04AE0F49E300D1124F32E20620CC09D
S1130FE08E3221F426FDD5C2206406C08C3611F45D
S1130FF0206802C0883641F4F40193FD859193FF83
S113100081914F018111C1CF9BEB980F933018F45C
S11310102061805E06C09BE9980F933008F064C19C
S11310202F7E26FF16E02F73322E853619F42064A6
S1131030322E08C0863621F4F22FF0683F2E02C00B
S11310401111115037FE07C01C3350F4EE24E39401
S1131050E10E27E00BC0183038F027E017E005C098
S113106027E04CE3E42E02C0212FE12C520144E09E
S1131070A40EB11CF20160817181828193810E2DD5
S1131080A301E8D22C01098100FF02C003FF07C0BD
S113109031FC08C032FE09C030E2232E07C02DE225
S11310A0222E04C09BE2292E01C0212C802F8C709B
S11310B019F0211051C28DC237FE0FC0E40C04FF99
S11310C004C08A81813309F4EA941E1474F5F8E0AB
S11310D0FE1578F588E0E82E2CC036FC2AC0812F56
S11310E090E0841595059CF02CEF42162FEF5206E4
S11310F074F0432D4068342E0AC0E2E0F0E0EC0FB7
S1131100FD1FE10FF11D8081803319F4115011117D
S1131110F4CF37FE0EC0EE24E394E10E812F90E06D
S1131120481659062CF4141904C0EE24E39401C0A3
S113113010E037FE06C01414150434F4C2010196FD
S113114005C085E090E002C081E090E021100196A6
S1131150112331F0212F30E02F5F3F4F820F931F77
S11311602F2D30E08217930714F4F81A01C0F12CE4
S1131170832D897041F4FF2031F0B60180E290E0C4
S11311807AD3FA94F8CF222021F0B601822D90E090
S113119072D333FC08C0FF2031F0B60180E390E045
S11311A06AD3FA94F8CF37FE58C0942D852D57FE94
S11311B002C090E080E0292E382E20E030E0A20129
S11311C04E1951095D874C87A201421953095F8763
S11311D04E87612F70E044275527461B570B598BC8
S11311E0488B5FEF2516350641F4B6018EE290E098
S11311F02A8B3B8B40D33B892A89421453046CF0DD
S11312004C855D854215530544F4EE85FF85E20F58
S1131210F31FE60DF71D818101C080E351E0251A1B
S113122031082F5F3F4F488959892416350644F009
S1131230B60190E02A8B3B8B1ED32A893B89D1CF00
S11312402414350439F49A81963318F4953311F43F
S113125004FF81E3B60190E045C08A81813309F03F
S11312600F7EB60190E007D3111105C034FC16C0FF
S113127085E690E015C0B6018EE290E0FCD282E0F3
S1131280EE24E394E80EF301E80FF11D8081B6012A
S113129090E0F1D211508E2D99F7E8CF85E490E0DB
S11312A0B601E9D257FC05C04114510439F404FFD6
S11312B005C05194419451088DE201C08BE2B601FE
S11312C090E0D9D280E39AE0491651042CF08F5F64
S11312D05AE0451A5108F7CFB60190E0CCD2B601D6
S11312E0C201C096C8D24CC1833631F0833779F03D
S11312F0833509F054C020C05201E2E0AE0EB11CA7
S1131300F2018081898301E010E0230113C05201BE
S1131310F2E0AF0EB11CF2014080518026FF03C001
S1131320612F70E002C06FEF7FEFC2012A8B75D28C
S11313308C012A892F7714C05201F2E0AF0EB11C40
S1131340F2014080518026FF03C0612F70E002C08B
S11313506FEF7FEFC2012A8B55D28C012A89206856
S1131360322E23FD18C08F2D90E00817190798F42A
S1131370B60180E290E07FD2FA94F5CFF20137FC17
S1131380859137FE81912F01B60190E074D2F1105E
S1131390FA94015011090115110581F7F1C0843641
S11313A011F0893651F5520127FF09C0F4E0AF0E60
S11313B0B11CF20160817181828193810AC0F2E0E3
S11313C0AF0EB11CF20160817181072E000C880BF5
S11313D0990B2F76322E97FF09C0909580957095C2
S11313E061957F4F8F4F9F4F2068322E2AE030E067
S11313F0A30199D2E82EE6183EC0022F853721F4C6
S11314000F7E2AE030E01DC0097F8F3691F018F47A
S1131410883559F0BEC0803719F0883711F0B9C04B
S1131420006104FF09C0046007C024FF08C006600F
S113143006C028E030E005C020E130E002C020E131
S113144032E0520107FF09C0F4E0AF0EB11CF20113
S1131450608171818281938108C0F2E0AF0EB11C7A
S1131460F2016081718180E090E0A3015CD2E82EFA
S1131470E6180F77302E36FE0BC0332D3E7FE11673
S113148050F434FE0AC032FC08C0332D3E7E05C041
S11314900E2D332D03C00E2D01C0012F34FF0CC0BF
S11314A0FE01EE0DF11D8081803311F4397E08C0F8
S11314B032FF05C00E5F04C0832F867809F00F5FEA
S11314C033FD12C030FF06C01E2D0F1518F41F0D7A
S11314D0101B0F2D0F1560F4B60180E290E03B8BDA
S11314E0CAD10F5F3B89F6CF0F1510F4F01A01C073
S11314F0F12C34FF11C0B60180E390E03B8BBBD1EB
S11315003B8932FF16C031FD03C088E790E002C07A
S113151088E590E0B6010CC0832F867851F031FF46
S113152002C08BE201C080E237FD8DE2B60190E09B
S1131530A2D1E11630F4B60180E390E09CD11150C1
S1131540F8CFEA94F301EE0DF11D8081B60190E02D
S113155092D1E110F6CF14C0F4E0FF1548F584E011
S1131560F81A33FE1DC0211024C003FF27C006E271
S113157010E0F32DF0713F2EF8018491811121C008
S1131580FF2009F4FDCCB60180E290E074D1FA9416
S1131590F7CFF6018681978123C08FEF9FEF20C09C
S11315A0B60180E290E067D1FA94F110F9CFDBCF75
S11315B0F12CB601822D90E05ED1D7CF0AE210E083
S11315C0D8CF31108052B60190E055D10F5F1F4F34
S11315D0D3CF23E02F1510F483E0C2CFF12CC5CF75
S11315E06396E2E11CC02F923F924F925F926F92FA
S11315F07F928F929F92AF92BF92CF92DF92EF929F
S1131600FF920F931F93CF93DF93CDB7DEB7CA1B1F
S1131610DB0B0FB6F894DEBF0FBECDBF09942A884A
S1131620398848885F846E847D848C849B84AA84F2
S1131630B984C884DF80EE80FD800C811B81AA817F
S1131640B981CE0FD11D0FB6F894DEBF0FBECDBF4A
S1131650ED010895283008F027E03327DA01990FC7
S1131660311D87FD916000966105710539F4326082
S11316702E5F3D9330E32A95E1F708959F3F30F0C4
S113168080387105610509F03C5F3C5F3D93913002
S113169008F08068911DDF93CF931F930F93FF92FF
S11316A0EF92192F987F9695E92F96959695E90FC5
S11316B0FF27E857FF4F99273327EE24FF24A7017C
S11316C0E70105900894079428F4360FE71EF81EE6
S11316D0491F511D660F771F881F991F0694A1F794
S11316E00590079428F4E70EF81E491F561FC11DE4
S11316F0770F881F991F661F0694A1F7059007941A
S113170028F4F80E491F561FC71FD11D880F991FB3
S1131710661F771F0694A1F70590079420F4490FDC
S1131720561FC71FD81F990F661F771F881F06945F
S1131730A9F784911095177041F0D695C7955795E0
S11317404795F794E7941A95C1F7EEE2F0E06894B0
S11317501590159135916591959105907FE273955A
S1131760E118F10A430B560BC90BD009C0F7E10C81
S1131770F11E431F561FC91FD01D7EF4703311F490
S11317808A95E6CFE894015030F0080F0AF4002758
S1131790021708F4202F2395022F7A3328F079E3D7
S11317A07D932A95E9F710C07D932A9589F60694CE
S11317B097956795379517951794E118F10A430B98
S11317C0560BC90BD00998F023957E9173957A3303
S11317D008F070E37C932013B8F77E9170617D93D9
S11317E030F0839571E37D9370E32A95E1F711243A
S11317F0EF90FF900F911F91CF91DF91992787FD73
S113180090950895FC010590615070400110D8F73F
S1131810809590958E0F9F1F0895FC016150704034
S113182001900110D8F7809590958E0F9F1F089511
S1131830BB274A3031F4992322F4BDE29095819577
S11318409F4F01C0BB27FB015527AA27880F991F6B
S1131850AA1FA41710F0A41B83955051B9F7A05DDB
S1131860AA3308F0A95DA193009779F7B111B19358
S11318701192CB01B6C00F931F93CF93DF93FB015B
S1131880238121FD03C08FEF9FEF28C022FF16C0E4
S113189046815781248135814217530744F4A0813E
S11318A0B1819D012F5F3F4F318320838C9326812B
S11318B037812F5F3F4F3783268310C0EB01092FF9
S11318C0182F0084F185E02D0995892BE1F68E818E
S11318D09F8101969F838E83812F902FDF91CF91DB
S11318E01F910F910895AEE0B0E0E8E7FCE089CEE7
S11318F00D891E8986E08C831A8309838FEF9FE705
S11319009E838D83AE01475E5F4F6F89788DCE01D4
S113191001960CDB2F813885F801E20FF31F10824A
S11319202E96E4E08ACEFA01AA27283051F120311C
S113193081F1E8946F936E7F6E5F7F4F8F4F9F4F5F
S1131940AF4FB1E03ED0B4E03CD0670F781F891FA1
S11319509A1FA11D680F791F8A1F911DA11D6A0F6F
S1131960711D811D911DA11D20D009F468943F9122
S11319702AE0269F11243019305D3193DEF6CF0121
S11319800895462F4770405D4193B3E00FD0C9F7E7
S1131990F6CF462F4F70405D4A3318F0495D31FD54
S11319A04052419302D0A9F7EACFB4E0A6959795A7
S11319B0879577956795BA95C9F70097610571057D
S11319C008959B01AC010A2E0694579547953795C7
S11319D02795BA95C9F7620F731F841F951FA01D21
S11319E00895DC01FC01672F71917723E1F73297A9
S11319F004C07C916D9370836291AE17BF07C8F3E6
S1091A000895F894FFCFE5
S1131A0648656C6C6F00445331384232303D2531A1
S1131A166400543D25332E31662043004453313847
S1131A2642323074004453313939300045455052FE
S10B1A364F4D006B65790000BF
S9030000FC
