S01700004763634170706C69636174696F6E312E737265635B
S11300000C9434010C94F2020C9451010C9451019F
S11300100C9451010C9451010C9451010C94510114
S11300200C9451010C9451010C9451010C940B0348
S11300300C9451010C9451010C9451010C945101F4
S11300400C9451010C9451010C9451010C945101E4
S11300500C9451010C9451010C9451010C945101D4
S11300600C9425040C9451014504E905E905E905BE
S1130070E905E905E905E9055304E905E905E905A3
S1130080E905E905E905E9056A04E905E905E9057C
S1130090E905E905E905E9058204E905E905E90554
S11300A0E905E905E905E905AE04E905E905E90518
S11300B0E905E905E905E905BC04E905E905E905FA
S11300C0E905E905E905E905FD04E905E905E905A9
S11300D0E905E905E905E9050B05E905E905E9058A
S11300E0E905E905E905E9051805E905E905E9056D
S11300F0E905E905E905E9052A05E905E905E9054B
S1130100E905E905E905E9053805E905E905E9052C
S1130110E905E905E905E9055405E905E905E90500
S1130120E905E905E905E9056E05E905E905E905D6
S1130130E905E905E905E9056505E905E905E905CF
S1130140E905E905E905E9056E05E905E905E905B6
S1130150E905E905E905E9056505E905E905E905AF
S1130160E905E905E905E9057905E905E905E9058B
S1130170E905E905E905E9058F05E905E905E90565
S1130180E905E905E905E9057905E905E905E9056B
S1130190E905E905E905E9058F05E905E905E90545
S11301A0E905E905E905E905A805E905E905E9051C
S11301B0E905E905E905E905B505E905E905E905FF
S11301C0E905E905E905E905AC05E905E905E905F8
S11301D0E905E905E905E905BF05E905E905E905D5
S11301E0E905E905E905E905D605E905E905E905AE
S11301F0E905E905E905E905D6050E020E0238020E
S11302005B026F0100004F626F726F74750023020E
S1130210230249025B026801000052657A68756D29
S11302202032000E020E0249025B026101000052FC
S1130230657A68756D203100490249025B02FA0152
S11302405A0100004D454E5500380238025B022326
S113025002530176015374617274000000000000BF
S1130260000000000000000011241FBECFEFD8E002
S1130270DEBFCDBF11E0A0E0B1E0E2E3F5E102C0F2
S113028005900D92AE37B107D9F722E0AEE7B1E0A1
S113029001C01D92AE31B207E1F70E949B030C949A
S11302A0970A0C94000081E090E090938101809380
S11302B08001089582E090E0909381018093800111
S11302C0089583E090E090938101809380010895E4
S11302D084E090E09093810180938001089585E00B
S11302E090E0909381018093800108958AE091E0E9
S11302F00E94F6060895009719F00E94F6060895E4
S113030081E191E00E94F606089580918001909128
S113031081018330910509F465C034F4813091057D
S113032059F00297A1F108958430910509F485C02C
S1130330059709F4ADC0089582E090E00E94090792
S113034061E080E00E94EF06809101018F9380912B
S113035000018F93809181018F93809180018F930D
S113036089E191E09F938F9386E891E09F938F9327
S11303700E94BF0786E891E00E94F6068DB79EB7FB
S113038008960FB6F8949EBF0FBE8DBF089582E005
S113039090E00E94090761E080E00E94EF068091EE
S11303A001018F93809100018F93809181018F933C
S11303B0809180018F9389E191E09F938F9386E8E8
S11303C091E09F938F930E94BF0786E891E00E947B
S11303D0F6068DB79EB708960FB6F8949EBF0FBE6B
S11303E08DBF089582E090E00E94090761E080E0FB
S11303F00E94EF06809101018F93809100018F93F9
S1130400809181018F93809180018F9389E191E0A4
S11304109F938F9386E891E09F938F930E94BF07E9
S113042086E891E00E94F6068DB79EB708960FB64F
S1130430F8949EBF0FBE8DBF089582E090E00E94A5
S1130440090761E080E00E94EF06809101018F932B
S1130450809100018F93809181018F93809180011D
S11304608F9389E191E09F938F9386E891E09F9326
S11304708F930E94BF0786E891E00E94F6068DB72D
S11304809EB708960FB6F8949EBF0FBE8DBF089511
S113049082E090E00E94090761E080E00E94EF069C
S11304A0809101018F93809100018F93809181014C
S11304B08F93809180018F9389E191E09F938F9333
S11304C086E891E09F938F930E94BF0786E891E0AE
S11304D00E94F6068DB79EB708960FB6F8949EBF95
S11304E00FBE8DBF0895009769F544E031E022E026
S11304F080917E0190917F018130910581F082305D
S11305009105C1F0892BD9F438B980917E0190917D
S11305107F01019690937F0180937E0110C028B9DA
S113052080917E0190917F01019690937F01809349
S11305307E0105C048B910927F0110927E011D9979
S1130540D7CF089518161906ACF520E030E0E2E0A4
S113055074E061E01D9B29C040917E0150917F01B0
S11305604130510589F042305105D1F0452BE9F471
S113057068B940917E0150917F014F5F5F4F509366
S11305807F0140937E0111C0E8B940917E015091F2
S11305907F014F5F5F4F50937F0140937E0105C001
S11305A078B910927F0110927E012F5F3F4F281778
S11305B0390781F6089583B184FF0AC081FF0AC018
S11305C082FF0AC083FF0AC080FF0AC080E008954A
S11305D085E0089581E0089582E0089583E0089518
S11305E084E008951F920F920FB60F9211248F93F7
S11305F09F93F89480918201909183010196909346
S113060083018093820178949F918F910F900FBE04
S11306100F901F9018951F920F920FB60F921124EE
S11306202F933F934F935F936F937F938F939F93F6
S1130630AF93BF93CF93DF93EF93FF93F89480919D
S113064000019091010101969093010180930001B2
S1130650489B02C0589801C0589A8091000190911B
S113066001010B9774F1109201011092000181E0D5
S113067090E00E94090760E080E00E94EF0680910C
S113068001018F93809100018F93809183018F9357
S1130690809182018F9383E291E09F938F9386E808
S11306A091E09F938F930E94BF0786E891E00E9498
S11306B0F6068DB79EB708960FB6F8949EBF0FBE88
S11306C08DBF8091820190918301EC01EC9710928F
S11306D0830110928201CF97079720F48EEC9FEF4D
S11306E00E947302CE010A97449720F48CE99FEF8D
S11306F00E947302CE31D10524F086E09FEF0E9460
S11307007302AD9724F080E090E00E947302789425
S1130710FF91EF91DF91CF91BF91AF919F918F9115
S11307207F916F915F914F913F912F910F900FBEE9
S11307300F901F90189587E087B914B8D3E0DAB901
S11307408FE185B980E288B9C2E0CBB90E94750611
S11307500E94050760E080E00E94EF06DDBB85B7DC
S1130760836085BFC093810080E29EE490938900FA
S113077080938800C0936F0078948BE791E00E9487
S11307805A0789E492E00E9437070E94DB02833013
S113079029F128F4813049F08230A1F040C084303E
S11307A051F1853009F434C03AC085E691E00E94E5
S11307B0F6060E9432070296FC01859194910E94EC
S11307C0370732C088E691E00E94F6060E9432079D
S11307D0FC01859194910E94370726C08DE691E033
S11307E00E94F6060E9432070496FC0185919491BA
S11307F00E94370719C082E791E00E94F6060E9422
S113080032070696FC01859194910E9437070CC02B
S113081088E791E00E94F6060E94650705C00E94E1
S113082032070C960E94F6060E94850160E080E083
S11308300E94EF062FEF87EA91E621508040904016
S1130840E1F700C00000A1CF08951F920F920FB6E8
S11308500F9211242F933F934F935F936F937F9342
S11308608F939F93AF93BF93EF93FF938091B900BE
S1130870E82FE87F8E2F90E0893C910508F0A9C10C
S1130880FC01EC5CFF4F0C94B90780911C02816061
S113089080931C0285ED8093BC00E0910201F091ED
S11308A00301099596C180911C028C7031F48091EA
S11308B0AF0181608093AF0105C08091AF018E7F4D
S11308C08093AF018091AF018093BB0085EC80934E
S11308D0BC007FC180911C028C70883031F48091FF
S11308E0AF0181608093AF0105C08091AF018E7F1D
S11308F08093AF018091AF018093BB0085EC80931E
S1130900BC0067C180911C028C70843081F4E0913A
S1130910AB01F0E0E455FE4F80818093BB008091F1
S1130920AB018F5F8093AB0185EC8093BC00809119
S11309301C028C70883009F04CC1E091B401F0E0E5
S1130940EE54FE4F80818093BB008091B4018F5F91
S11309508093B40185EC8093BC003BC180911C0260
S1130960806180931C0285ED8093BC00E0910201BC
S1130970F091030109952DC180911C028C70843083
S1130980E9F4E091AB0180911902E81309C085ED07
S11309908093BC00E0910601F091070109950EC017
S11309A0F0E0E455FE4F80818093BB008091AB0161
S11309B08F5F8093AB0185EC8093BC0080911C0217
S11309C08C70883009F005C1E091B4018091B101C7
S11309D0E81304C085EE8093BC00FBC0F0E0EE5445
S11309E0FE4F80818093BB008091B4018F5F809320
S11309F0B40185EC8093BC00ECC080911C02826041
S1130A0080931C0285ED8093BC00E0910601F09177
S1130A1007010995DEC080911C02806280931C024C
S1130A201092AB011092B40185EE8093BC00D1C04A
S1130A308091AB0190E001962091190230E0821779
S1130A40930721F485E88093BC00C3C085EC8093B0
S1130A50BC00BFC080911C02806180931C0285EDA4
S1130A608093BC00E0910201F09103010995B1C0AB
S1130A708091AB019091BB00E82FF0E0E455FE4F6C
S1130A8090838F5F8093AB0190E0019620911902CF
S1130A9030E08217930721F485E88093BC0099C065
S1130AA085EC8093BC0095C08091BB00E091AB01C4
S1130AB0F0E0E455FE4F808385ED8093BC00E09127
S1130AC00601F0910701099584C080911C02806A97
S1130AD080931C021092AB011092B40180911C020D
S1130AE0806480931C0210921A0285E88093BC00F3
S1130AF070C080911A029091BB00E82FF0E0E55E8F
S1130B00FD4F90838F5F80931A02811104C085E8A2
S1130B108093BC005EC085EC8093BC005AC0809179
S1130B20BB00E0911A02F0E0E55EFD4F8083809106
S1130B301C02882324F485EE8093BC0003C085EC5A
S1130B408093BC00E0910401F0910501099541C036
S1130B5085EC8093BC003DC080911C02806A809328
S1130B601C021092AB011092B40110921A028091EF
S1130B70B0018093BB0085E88093BC002AC0E0915B
S1130B801A02EF5FE0931A02F0E0E055FE4F808115
S1130B908093BB0080911A02811104C085E8809380
S1130BA0BC0017C081EC8093BC0013C080911C0270
S1130BB088233CF48F7780931C0285EE8093BC00DD
S1130BC003C085EC8093BC00E0910401F091050121
S1130BD00995FF91EF91BF91AF919F918F917F9173
S1130BE06F915F914F913F912F910F900FBE0F9096
S1130BF01F901895CF93C82F80E70E94770788E04D
S1130C008C0F0E94A7070E949E07CF910895CF934F
S1130C10C82F807F846080931D020E94FA05809112
S1130C201D028B7F80931D020E94FA0580911D0294
S1130C300E94FA058FE891E00197F1F700C00000E7
S1130C408C2F8295807F846080931D020E94FA0518
S1130C5080911D028B7F80931D020E94FA05809172
S1130C601D020E94FA05CC7F39F08FE891E00197CC
S1130C70F1F700C0000006C08FE39FE10197F1F790
S1130C8000C00000CF910895CF93C82F807F856066
S1130C9080931D020E94FA0580911D028B7F809330
S1130CA01D020E94FA058FE891E00197F1F700C058
S1130CB0000020E1C29FC0011124856080931D02C1
S1130CC00E94FA0580911D028B7F80931D020E9471
S1130CD0FA0580911D020E94FA058FE39FE10197B6
S1130CE0F1F700C00000CF91089580E00E94FA055A
S1130CF02FEF83EF91E0215080409040E1F700C056
S1130D00000080E380931D020E94FA0580911D0279
S1130D10846080931D020E94FA0580911D028B7FDE
S1130D2080931D020E94FA058FE19EE40197F1F77A
S1130D3000C0000080911D02846080931D020E9407
S1130D40FA0580911D028B7F80931D020E94FA0593
S1130D508FE891E00197F1F700C0000080911D0237
S1130D60846080931D020E94FA0580911D028B7F8E
S1130D7080931D020E94FA058FE891E00197F1F734
S1130D8000C0000080E280931D020E94FA05809159
S1130D901D02846080931D020E94FA0580911D0249
S1130DA08B7F80931D020E94FA0580911D020E9490
S1130DB0FA058FE891E00197F1F700C0000088E29E
S1130DC00E94070688E00E94070680E00E9407064A
S1130DD086E00E9407068CE00E94070608956130B1
S1130DE009F4805C80680E9407060895CF93DF931E
S1130DF0EC018881882331F021960E944406899170
S1130E008111FBCFDF91CF91089581E00E94070605
S1130E100895CF93813079F460E080E00E94EF067A
S1130E20C0E180E20E944406C150D9F760E080E04E
S1130E300E94EF0615C0823079F461E080E00E94E0
S1130E40EF06C0E180E20E944406C150D9F761E098
S1130E5080E00E94EF0604C0833011F40E9405076D
S1130E60CF9108958091080190910901089522E09D
S1130E708B359207F1F00097E1F0DC0190930901C2
S1130E8080930801E0918401F0918501309731F05D
S1130E9016968D919C9117970C960995E0910801EF
S1130EA0F0910901389685919491009711F0FC0115
S1130EB00995089590938501809384018091080198
S1130EC0909109010E9437070895E0910801F0917B
S1130ED0090182E0EB35F80749F0309739F03A968A
S1130EE085919491009711F0FC010995089594EA75
S1130EF09093BC00ECEBF0E090819923ECF7909197
S1130F00B900987F983011F09031A1F48093BB0020
S1130F1084E88093BC00ECEBF0E080818823ECF75C
S1130F209091B900987F983139F081E0903429F498
S1130F3080E0089581E0089580E0089584E9809335
S1130F40BC00ECEBF0E0808184FDFDCF089580933C
S1130F50BB0084E88093BC00ECEBF0E08081882344
S1130F60ECF79091B900987F81E0983209F480E021
S1130F700895EE0FFF1F0590F491E02D0994AEE063
S1130F80B0E0E5ECF7E00C946E0A0D891E8986E06A
S1130F908C831A8309838FEF9FE79E838D83AE0131
S1130FA0475E5F4F6F89788DCE0101960E94E207FC
S1130FB02F813885F801E20FF31F10822E96E4E0AA
S1130FC00C948A0AACE0B0E0E8EEF7E00C94600A16
S1130FD07C016B018A01FC0117821682838181FFE7
S1130FE0BDC1CE0101964C01F7019381F60193FD39
S1130FF0859193FF81916F01882309F4ABC18532F8
S113100039F493FD859193FF81916F01853229F421
S1131010B70190E00E94CA09E7CF512C312C20E09F
S11310202032A0F48B3269F030F4803259F08332EC
S113103069F420612CC08D3239F0803339F4216099
S113104026C02260246023C0286021C027FD27C059
S113105030ED380F3A3078F426FF06C0FAE05F9E90
S1131060300D1124532E13C08AE0389E300D112404
S1131070332E20620CC08E3221F426FD6BC1206415
S113108006C08C3611F4206802C0883641F4F6019B
S113109093FD859193FF81916F018111C1CF982FA9
S11310A09F7D9554933028F40C5F1F4FFFE3F98321
S11310B00DC0833631F0833771F0833509F05BC09E
S11310C022C0F801808189830E5F1F4F442443941A
S11310D0512C540115C03801F2E06F0E711CF80157
S11310E0A080B18026FF03C0652D70E002C06FEFC1
S11310F07FEFC5012C870E94BF092C0183012C8539
S11311002F77222E17C03801F2E06F0E711CF80100
S1131110A080B18026FF03C0652D70E002C06FEF90
S11311207FEFC5012C870E94B4092C012C8520680F
S1131130222E830123FC1BC0832D90E04816590600
S1131140B0F4B70180E290E00E94CA093A94F4CF67
S1131150F50127FC859127FE81915F01B70190E09D
S11311600E94CA0931103A94F1E04F1A510841140F
S1131170510471F7E5C0843611F0893639F5F80168
S113118027FF07C060817181828193810C5F1F4FAB
S113119008C060817181072E000C880B990B0E5FCB
S11311A01F4F2F76722E97FF09C0909580957095EA
S11311B061957F4F8F4F9F4F2068722E2AE030E059
S11311C0A4010E94020AA82EA81844C0853729F455
S11311D02F7EB22E2AE030E025C0F22FF97FBF2EF9
S11311E08F36C1F018F4883579F0B4C0803719F01F
S11311F0883721F0AFC02F2F2061B22EB4FE0DC06E
S11312008B2D8460B82E09C024FF0AC09F2F9660DE
S1131210B92E06C028E030E005C020E130E002C06D
S113122020E132E0F801B7FE07C06081718182815C
S113123093810C5F1F4F06C06081718180E090E054
S11312400E5F1F4FA4010E94020AA82EA818FB2DAE
S1131250FF777F2E76FE0BC0372D3E7FA51450F40A
S113126074FE0AC072FC08C0372D3E7E05C0BA2C3D
S1131270372D03C0BA2C01C0B52C34FF0DC0FE01BC
S1131280EA0DF11D8081803311F4397E09C032FFEB
S113129006C0B394B39404C0832F867809F0B39442
S11312A033FD13C030FF06C05A2CB31418F4530C8A
S11312B05B18B32CB31468F4B70180E290E03C8768
S11312C00E94CA09B3943C85F5CFB31410F43B18BB
S11312D001C0312C34FF12C0B70180E390E03C8799
S11312E00E94CA093C8532FF17C031FD03C088E75C
S11312F090E002C088E590E0B7010CC0832F8678A7
S113130059F031FF02C08BE201C080E237FD8DE26B
S1131310B70190E00E94CA09A51438F4B70180E32C
S113132090E00E94CA095A94F7CFAA94F401EA0DF6
S1131330F11D8081B70190E00E94CA09A110F5CF88
S1131340332009F451CEB70180E290E00E94CA092B
S11313503A94F6CFF7018681978102C08FEF9FEF11
S11313602C96E2E10C947C0AFC01059061507040DB
S11313700110D8F7809590958E0F9F1F0895FC015A
S11313806150704001900110D8F7809590958E0FB0
S11313909F1F08950F931F93CF93DF93FB01238126
S11313A021FD03C08FEF9FEF28C022FF16C04681A6
S11313B05781248135814217530744F4A081B181B8
S11313C09D012F5F3F4F318320838C93268137818A
S11313D02F5F3F4F3783268310C0EB01092F182F4F
S11313E00084F185E02D0995892BE1F68E819F819A
S11313F001969F838E83812F902FDF91CF911F9130
S11314000F910895FA01AA27283051F1203181F172
S1131410E8946F936E7F6E5F7F4F8F4F9F4FAF4FF8
S1131420B1E03ED0B4E03CD0670F781F891F9A1F0B
S1131430A11D680F791F8A1F911DA11D6A0F711DBF
S1131440811D911DA11D20D009F468943F912AE0CB
S1131450269F11243019305D3193DEF6CF010895B3
S1131460462F4770405D4193B3E00FD0C9F7F6CFE4
S1131470462F4F70405D4A3318F0495D31FD4052AC
S1131480419302D0A9F7EACFB4E0A6959795879542
S113149077956795BA95C9F7009761057105089521
S11314A09B01AC010A2E06945795479537952795CD
S11314B0BA95C9F7620F731F841F951FA01D089565
S11314C02F923F924F925F926F927F928F929F9250
S11314D0AF92BF92CF92DF92EF92FF920F931F933E
S11314E0CF93DF93CDB7DEB7CA1BDB0B0FB6F894EF
S11314F0DEBF0FBECDBF09942A88398848885F842F
S11315006E847D848C849B84AA84B984C884DF809F
S1131510EE80FD800C811B81AA81B981CE0FD11D83
S11315200FB6F894DEBF0FBECDBFED010895F89459
S1051530FFCFE7
S113153265002404240424045B02454E54455231BC
S1131542004E4F2054657874004D3D256420743D4F
S11315522564004A3D256420743D2564004D454EB2
S1131562553A004D656E755F31004D656E755F329B
S1131572004D656E755F315F31004D656E755F318B
S11315825F32004D656E755F325F31004D656E7579
S11315925F325F3200757000646F776E006C65664F
S11115A27400726967687400656E7465720087
S9030000FC
