S01700004763634170706C69636174696F6E312E737265635B
S11300000C9434010C946E030C9451010C94510122
S11300100C9451010C9451010C9451010C94510114
S11300200C9451010C9451010C9451010C948703CC
S11300300C9451010C9451010C9451010C945101F4
S11300400C9451010C9451010C9451010C945101E4
S11300500C9451010C9451010C9451010C945101D4
S11300600C94A2040C945101C2046606660666064A
S11300706606660666066606D004660666066606B4
S11300806606660666066606E7046606660666068D
S11300906606660666066606FF0466066606660665
S11300A066066606660666062B0566066606660628
S11300B0660666066606660639056606660666060A
S11300C066066606660666067A05660666066606B9
S11300D0660666066606660688056606660666069B
S11300E0660666066606660695056606660666067E
S11300F06606660666066606A7056606660666065C
S11301006606660666066606B5056606660666063D
S11301106606660666066606D10566066606660611
S11301206606660666066606EB05660666066606E7
S11301306606660666066606E205660666066606E0
S11301406606660666066606EB05660666066606C7
S11301506606660666066606E205660666066606C0
S11301606606660666066606F6056606660666069C
S113017066066606660666060C0666066606660675
S11301806606660666066606F6056606660666067C
S113019066066606660666060C0666066606660655
S11301A0660666066606660625066606660666062C
S11301B0660666066606660632066606660666060F
S11301C06606660666066606290666066606660608
S11301D066066606660666063C06660666066606E5
S11301E066066606660666065306660666066606BE
S11301F0660666066606660653060E020E02380298
S11302005B026F0100004F626F726F74750023020E
S1130210230249025B026801000052657A68756D29
S11302202032000E020E0249025B026101000052FC
S1130230657A68756D203100490249025B02FA0152
S11302405A0100004D454E5500380238025B022326
S113025002530176015374617274000000000000BF
S1130260000000000000000011241FBECFEFD8E002
S1130270DEBFCDBF11E0A0E0B1E0ECE2F6E102C0E8
S113028005900D92AE37B107D9F722E0AEE7B1E0A1
S113029001C01D92AE31B207E1F70E9418040C941C
S11302A0140B0C94000081E090E090938101809302
S11302B08001089582E090E0909381018093800111
S11302C0089583E090E090938101809380010895E4
S11302D084E090E09093810180938001089585E00B
S11302E090E0909381018093800108958AE091E0E9
S11302F00E9473070895009719F00E9473070895E8
S113030081E191E00E9473070895809180019091AA
S113031081018330910509F465C034F4813091057D
S113032059F00297A1F108958430910509F485C02C
S1130330059709F4ADC0089582E090E00E94860715
S113034061E080E00E946C07809101018F938091AD
S113035000018F93809181018F93809180018F930D
S113036089E191E09F938F9386E891E09F938F9327
S11303700E943C0886E891E00E9473078DB79EB7FF
S113038008960FB6F8949EBF0FBE8DBF089582E005
S113039090E00E94860761E080E00E946C078091F3
S11303A001018F93809100018F93809181018F933C
S11303B0809180018F9389E191E09F938F9386E8E8
S11303C091E09F938F930E943C0886E891E00E94FD
S11303D073078DB79EB708960FB6F8949EBF0FBEED
S11303E08DBF089582E090E00E94860761E080E07E
S11303F00E946C07809101018F93809100018F937B
S1130400809181018F93809180018F9389E191E0A4
S11304109F938F9386E891E09F938F930E943C086B
S113042086E891E00E9473078DB79EB708960FB6D1
S1130430F8949EBF0FBE8DBF089582E090E00E94A5
S1130440860761E080E00E946C07809101018F9330
S1130450809100018F93809181018F93809180011D
S11304608F9389E191E09F938F9386E891E09F9326
S11304708F930E943C0886E891E00E9473078DB731
S11304809EB708960FB6F8949EBF0FBE8DBF089511
S113049082E090E00E94860761E080E00E946C07A1
S11304A0809101018F93809100018F93809181014C
S11304B08F93809180018F9389E191E09F938F9333
S11304C086E891E09F938F930E943C0886E891E030
S11304D00E9473078DB79EB708960FB6F8949EBF17
S11304E00FBE8DBF0895009709F040C01D99FECF3F
S11304F080917E0190917F0181309105C1F082301D
S1130500910539F1892B09F0D1C081E088B9809136
S11305107E0190917F01019690937F0180937E01EB
S11305208FE891E00197F1F700C00000089582E0A0
S113053088B980917E0190917F01019690937F010B
S113054080937E01AFE8B1E01197F1F700C000009D
S1130550089584E088B910927F0110927E018FE89B
S113056091E00197F1F700C00000089518161906EC
S113057064F0AC01992324F444275527481B590BF4
S1130580141615060CF44AC0089520E030E0E2E0A9
S113059074E061E0339B3BC040917E0150917F0148
S11305A041305105B9F04230510531F1452B79F50F
S11305B068B940917E0150917F014F5F5F4F509326
S11305C07F0140937E01AFE8B1E01197F1F700C0DD
S11305D000001DC0E8B940917E0150917F014F5F3A
S11305E05F4F50937F0140937E01AFE8B1E01197D4
S11305F0F1F700C000000BC078B910927F0110928F
S11306007E01AFE8B1E01197F1F700C000002F5F61
S11306103F4F2817390709F0BDCF089580E090E0D7
S1130620E2E071E064E01D9B3CC020917E013091CA
S11306307F012130310591F02230310519F0232B4F
S113064081F51EC078B910927F0110927E01AFE847
S1130650B1E01197F1F700C0000023C0E8B9209180
S11306607E0130917F012F5F3F4F30937F012093B4
S11306707E01AFE8B1E01197F1F700C0000011C0AE
S113068068B920917E0130917F012F5F3F4F3093F5
S11306907F0120937E01AFE8B1E01197F1F700C02C
S11306A0000001968417950709F0BDCF089583B122
S11306B084FF0AC081FF0AC082FF0AC083FF0AC008
S11306C080FF0AC080E0089585E0089581E00895E0
S11306D082E0089583E0089584E008951F920F92C4
S11306E00FB60F9211248F939F93F89480918201F7
S11306F09091830101969093830180938201789471
S11307009F918F910F900FBE0F901F9018951F927D
S11307100F920FB60F9211242F933F934F935F9331
S11307206F937F938F939F93AF93BF93CF93DF93F5
S1130730EF93FF93F8948091000190910101019649
S11307409093010180930001489B02C0589801C016
S1130750589A80910001909101010B9774F11092C5
S113076001011092000181E090E00E94860760E0A0
S113077080E00E946C07809101018F9380910001B9
S11307808F93809183018F93809182018F9383E271
S113079091E09F938F9386E891E09F938F930E94BB
S11307A03C0886E891E00E9473078DB79EB70896CF
S11307B00FB6F8949EBF0FBE8DBF809182019091B9
S11307C08301EC01EC971092830110928201CF9780
S11307D0079720F48EEC9FEF0E947302CE010A97D4
S11307E0449720F48CE99FEF0E947302CE31D10527
S11307F024F086E09FEF0E947302C33DDF4F24F094
S113080080E090E00E9473027894FF91EF91DF9171
S1130810CF91BF91AF919F918F917F916F915F9194
S11308204F913F912F910F900FBE0F901F901895ED
S113083087E087B914B8C3E0CAB98FE185B980E20B
S113084088B9D2E0DBB90E94F2060E94820760E018
S113085080E00E946C07CDBB85B7836085BFC093E1
S113086081008EE19BEF9093890080938800D09360
S11308706F0078948BE791E00E94D70789E492E0B7
S11308800E94B4070E945703833029F128F4813071
S113089049F08230A1F040C0843051F1853009F430
S11308A034C03AC085E691E00E9473070E94AF0706
S11308B00296FC01859194910E94B40732C088E6A7
S11308C091E00E9473070E94AF07FC018591949107
S11308D00E94B40726C08DE691E00E9473070E942F
S11308E0AF070496FC01859194910E94B40719C046
S11308F082E791E00E9473070E94AF070696FC010D
S1130900859194910E94B4070CC088E791E00E94FD
S113091073070E94E20705C00E94AF070C960E946D
S113092073070E94850160E080E00E946C072FEF4E
S113093087EA91E6215080409040E1F700C0000032
S1130940A1CF08951F920F920FB60F9211242F93E7
S11309503F934F935F936F937F938F939F93AF9343
S1130960BF93EF93FF938091B900E82FE87F8E2F18
S113097090E0893C910508F0A9C1FC01EC5CFF4FB3
S11309800C94360880911C02816080931C0285EDD2
S11309908093BC00E0910201F0910301099596C196
S11309A080911C028C7031F48091AF01816080933E
S11309B0AF0105C08091AF018E7F8093AF0180911C
S11309C0AF018093BB0085EC8093BC007FC1809114
S11309D01C028C70883031F48091AF018160809367
S11309E0AF0105C08091AF018E7F8093AF018091EC
S11309F0AF018093BB0085EC8093BC0067C18091FC
S1130A001C028C70843081F4E091AB01F0E0E45579
S1130A10FE4F80818093BB008091AB018F5F8093F8
S1130A20AB0185EC8093BC0080911C028C708830F3
S1130A3009F04CC1E091B401F0E0EE54FE4F808126
S1130A408093BB008091B4018F5F8093B40185ECE7
S1130A508093BC003BC180911C02806180931C0286
S1130A6085ED8093BC00E0910201F09103010995AA
S1130A702DC180911C028C708430E9F4E091AB01AB
S1130A8080911902E81309C085ED8093BC00E091C0
S1130A900601F091070109950EC0F0E0E455FE4F00
S1130AA080818093BB008091AB018F5F8093AB0109
S1130AB085EC8093BC0080911C028C70883009F016
S1130AC005C1E091B4018091B101E81304C085EE41
S1130AD08093BC00FBC0F0E0EE54FE4F8081809315
S1130AE0BB008091B4018F5F8093B40185EC809347
S1130AF0BC00ECC080911C02826080931C0285EDD6
S1130B008093BC00E0910601F09107010995DEC0D5
S1130B1080911C02806280931C021092AB0110929F
S1130B20B40185EE8093BC00D1C08091AB0190E00C
S1130B3001962091190230E08217930721F485E889
S1130B408093BC00C3C085EC8093BC00BFC080917F
S1130B501C02806180931C0285ED8093BC00E091AF
S1130B600201F09103010995B1C08091AB0190910C
S1130B70BB00E82FF0E0E455FE4F90838F5F809335
S1130B80AB0190E001962091190230E0821793079F
S1130B9021F485E88093BC0099C085EC8093BC0067
S1130BA095C08091BB00E091AB01F0E0E455FE4FAD
S1130BB0808385ED8093BC00E0910601F0910701EC
S1130BC0099584C080911C02806A80931C02109253
S1130BD0AB011092B40180911C02806480931C02CA
S1130BE010921A0285E88093BC0070C080911A02AA
S1130BF09091BB00E82FF0E0E55EFD4F90838F5F9E
S1130C0080931A02811104C085E88093BC005EC001
S1130C1085EC8093BC005AC08091BB00E0911A021D
S1130C20F0E0E55EFD4F808380911C02882324F46C
S1130C3085EE8093BC0003C085EC8093BC00E091FA
S1130C400401F0910501099541C085EC8093BC0035
S1130C503DC080911C02806A80931C021092AB01FB
S1130C601092B40110921A028091B0018093BB00DB
S1130C7085E88093BC002AC0E0911A02EF5FE093FC
S1130C801A02F0E0E055FE4F80818093BB00809112
S1130C901A02811104C085E88093BC0017C081EC5E
S1130CA08093BC0013C080911C0288233CF48F778E
S1130CB080931C0285EE8093BC0003C085EC809376
S1130CC0BC00E0910401F09105010995FF91EF91B9
S1130CD0BF91AF919F918F917F916F915F914F9150
S1130CE03F912F910F900FBE0F901F901895CF93A7
S1130CF0C82F80E70E94F40788E08C0F0E94240824
S1130D000E941B08CF910895CF93C82F807F8460E1
S1130D1080931D020E94770680911D028B7F809331
S1130D201D020E94770680911D020E9477068FE8BB
S1130D3091E00197F1F700C000008C2F8295807F2D
S1130D40846080931D020E94770680911D028B7F30
S1130D5080931D020E94770680911D020E947706EF
S1130D60CC7F39F08FE891E00197F1F700C00000E3
S1130D7006C08FE39FE10197F1F700C00000CF9117
S1130D800895CF93C82F807F856080931D020E94B1
S1130D90770680911D028B7F80931D020E94770647
S1130DA08FE891E00197F1F700C0000020E1C29FB5
S1130DB0C0011124856080931D020E9477068091F2
S1130DC01D028B7F80931D020E94770680911D0275
S1130DD00E9477068FE39FE10197F1F700C00000BE
S1130DE0CF91089580E00E9477062FEF83EF91E082
S1130DF0215080409040E1F700C0000080E38093E0
S1130E001D020E94770680911D02846080931D025A
S1130E100E94770680911D028B7F80931D020E94A1
S1130E2077068FE19EE40197F1F700C000008091FE
S1130E301D02846080931D020E94770680911D022A
S1130E408B7F80931D020E9477068FE891E00197C3
S1130E50F1F700C0000080911D02846080931D02A0
S1130E600E94770680911D028B7F80931D020E9451
S1130E7077068FE891E00197F1F700C0000080E267
S1130E8080931D020E94770680911D0284608093E6
S1130E901D020E94770680911D028B7F80931D02A4
S1130EA00E94770680911D020E9477068FE891E0E8
S1130EB00197F1F700C0000088E20E94840688E0F0
S1130EC00E94840680E00E94840686E00E948406D4
S1130ED08CE00E9484060895613009F4805C806887
S1130EE00E9484060895CF93DF93EC0188818823C0
S1130EF031F021960E94C10689918111FBCFDF91C7
S1130F00CF91089581E00E9484060895CF938130A3
S1130F1079F460E080E00E946C07C0E180E20E9406
S1130F20C106C150D9F760E080E00E946C0715C08B
S1130F30823079F461E080E00E946C07C0E180E2D5
S1130F400E94C106C150D9F761E080E00E946C079D
S1130F5004C0833011F40E948207CF9108958091D8
S1130F60080190910901089522E08B359207F1F070
S1130F700097E1F0DC019093090180930801E0916E
S1130F808401F0918501309731F016968D919C91F2
S1130F9017970C960995E0910801F091090138968C
S1130FA085919491009711F0FC010995089590930F
S1130FB085018093840180910801909109010E9428
S1130FC0B4070895E0910801F091090182E0EB353E
S1130FD0F80749F0309739F03A9685919491009743
S1130FE011F0FC010995089594EA9093BC00ECEB90
S1130FF0F0E090819923ECF79091B900987F9830B4
S113100011F09031A1F48093BB0084E88093BC007C
S1131010ECEBF0E080818823ECF79091B900987FA5
S1131020983139F081E0903429F480E0089581E02A
S1131030089580E0089584E98093BC00ECEBF0E02F
S1131040808184FDFDCF08958093BB0084E8809364
S1131050BC00ECEBF0E080818823ECF79091B900C0
S1131060987F81E0983209F480E00895EE0FFF1F25
S11310700590F491E02D0994AEE0B0E0E2E4F8E0EC
S11310800C94EB0A0D891E8986E08C831A830983EC
S11310908FEF9FE79E838D83AE01475E5F4F6F891D
S11310A0788DCE0101960E945F082F813885F80162
S11310B0E20FF31F10822E96E4E00C94070BACE0D1
S11310C0B0E0E5E6F8E00C94DD0A7C016B018A01EE
S11310D0FC0117821682838181FFBDC1CE01019676
S11310E04C01F7019381F60193FD859193FF819162
S11310F06F01882309F4ABC1853239F493FD8591DE
S113110093FF81916F01853229F4B70190E00E9429
S1131110470AE7CF512C312C20E02032A0F48B3247
S113112069F030F4803259F0833269F420612CC0C4
S11311308D3239F0803339F4216026C02260246076
S113114023C0286021C027FD27C030ED380F3A3076
S113115078F426FF06C0FAE05F9E300D1124532E6A
S113116013C08AE0389E300D1124332E20620CC047
S11311708E3221F426FD6BC1206406C08C3611F436
S1131180206802C0883641F4F60193FD859193FFEF
S113119081916F018111C1CF982F9F7D9554933018
S11311A028F40C5F1F4FFFE3F9830DC0833631F041
S11311B0833771F0833509F05BC022C0F801808168
S11311C089830E5F1F4F44244394512C540115C04E
S11311D03801F2E06F0E711CF801A080B18026FF87
S11311E003C0652D70E002C06FEF7FEFC5012C874F
S11311F00E943C0A2C0183012C852F77222E17C0D4
S11312003801F2E06F0E711CF801A080B18026FF56
S113121003C0652D70E002C06FEF7FEFC5012C871E
S11312200E94310A2C012C852068222E830123FC84
S11312301BC0832D90E048165906B0F4B70180E234
S113124090E00E94470A3A94F4CFF50127FC859177
S113125027FE81915F01B70190E00E94470A311097
S11312603A94F1E04F1A51084114510471F7E5C062
S1131270843611F0893639F5F80127FF07C06081FB
S11312807181828193810C5F1F4F08C060817181DD
S1131290072E000C880B990B0E5F1F4F2F76722EB2
S11312A097FF09C090958095709561957F4F8F4FFA
S11312B09F4F2068722E2AE030E0A4010E947F0A2A
S11312C0A82EA81844C0853729F42F7EB22E2AE010
S11312D030E025C0F22FF97FBF2E8F36C1F018F40D
S11312E0883579F0B4C0803719F0883721F0AFC061
S11312F02F2F2061B22EB4FE0DC08B2D8460B82E2A
S113130009C024FF0AC09F2F9660B92E06C028E0AA
S113131030E005C020E130E002C020E132E0F80115
S1131320B7FE07C060817181828193810C5F1F4F7A
S113133006C06081718180E090E00E5F1F4FA401C0
S11313400E947F0AA82EA818FB2DFF777F2E76FE19
S11313500BC0372D3E7FA51450F474FE0AC072FCF6
S113136008C0372D3E7E05C0BA2C372D03C0BA2CD9
S113137001C0B52C34FF0DC0FE01EA0DF11D8081C2
S1131380803311F4397E09C032FF06C0B394B3949C
S113139004C0832F867809F0B39433FD13C030FF63
S11313A006C05A2CB31418F4530C5B18B32CB314A2
S11313B068F4B70180E290E03C870E94470AB39446
S11313C03C85F5CFB31410F43B1801C0312C34FF25
S11313D012C0B70180E390E03C870E94470A3C8535
S11313E032FF17C031FD03C088E790E002C088E5F2
S11313F090E0B7010CC0832F867859F031FF02C00A
S11314008BE201C080E237FD8DE2B70190E00E94DB
S1131410470AA51438F4B70180E390E00E94470A14
S11314205A94F7CFAA94F401EA0DF11D8081B70113
S113143090E00E94470AA110F5CF332009F451CE61
S1131440B70180E290E00E94470A3A94F6CFF70190
S11314508681978102C08FEF9FEF2C96E2E10C9476
S1131460F90AFC010590615070400110D8F780958D
S113147090958E0F9F1F0895FC016150704001905C
S11314800110D8F7809590958E0F9F1F08950F93A4
S11314901F93CF93DF93FB01238121FD03C08FEFC3
S11314A09FEF28C022FF16C04681578124813581D1
S11314B04217530744F4A081B1819D012F5F3F4F30
S11314C0318320838C93268137812F5F3F4F37836D
S11314D0268310C0EB01092F182F0084F185E02D1D
S11314E00995892BE1F68E819F8101969F838E83D6
S11314F0812F902FDF91CF911F910F910895FA01C1
S1131500AA27283051F1203181F1E8946F936E7F3E
S11315106E5F7F4F8F4F9F4FAF4FB1E03ED0B4E02F
S11315203CD0670F781F891F9A1FA11D680F791F70
S11315308A1F911DA11D6A0F711D811D911DA11D81
S113154020D009F468943F912AE0269F1124301991
S1131550305D3193DEF6CF010895462F4770405D2C
S11315604193B3E00FD0C9F7F6CF462F4F70405DDB
S11315704A3318F0495D31FD4052419302D0A9F736
S1131580EACFB4E0A6959795879577956795BA9530
S1131590C9F700976105710508959B01AC010A2EF6
S11315A006945795479537952795BA95C9F7620FCD
S11315B0731F841F951FA01D08952F923F924F9271
S11315C05F926F927F928F929F92AF92BF92CF92CF
S11315D0DF92EF92FF920F931F93CF93DF93CDB7D8
S11315E0DEB7CA1BDB0B0FB6F894DEBF0FBECDBF50
S11315F009942A88398848885F846E847D848C8421
S11316009B84AA84B984C884DF80EE80FD800C8129
S11316101B81AA81B981CE0FD11D0FB6F894DEBF0C
S10F16200FBECDBFED010895F894FFCF7C
S113162C6500A104A104A1045B02454E544552314A
S113163C004E4F2054657874004D3D256420743D54
S113164C2564004A3D256420743D2564004D454EB7
S113165C553A004D656E755F31004D656E755F32A0
S113166C004D656E755F315F31004D656E755F3190
S113167C5F32004D656E755F325F31004D656E757E
S113168C5F325F3200757000646F776E006C656654
S111169C7400726967687400656E746572008C
S9030000FC
